{
  "address": "0x82148358e2d42E54631bdFCc43501e0B6878fA1F",
  "abi": [
    {
      "inputs": [
        {
          "internalType": "address",
          "name": "priceFeedAddress",
          "type": "address"
        },
        {
          "internalType": "string",
          "name": "lowSvg",
          "type": "string"
        },
        {
          "internalType": "string",
          "name": "highSvg",
          "type": "string"
        }
      ],
      "stateMutability": "nonpayable",
      "type": "constructor"
    },
    {
      "anonymous": false,
      "inputs": [
        {
          "indexed": true,
          "internalType": "address",
          "name": "owner",
          "type": "address"
        },
        {
          "indexed": true,
          "internalType": "address",
          "name": "approved",
          "type": "address"
        },
        {
          "indexed": true,
          "internalType": "uint256",
          "name": "tokenId",
          "type": "uint256"
        }
      ],
      "name": "Approval",
      "type": "event"
    },
    {
      "anonymous": false,
      "inputs": [
        {
          "indexed": true,
          "internalType": "address",
          "name": "owner",
          "type": "address"
        },
        {
          "indexed": true,
          "internalType": "address",
          "name": "operator",
          "type": "address"
        },
        {
          "indexed": false,
          "internalType": "bool",
          "name": "approved",
          "type": "bool"
        }
      ],
      "name": "ApprovalForAll",
      "type": "event"
    },
    {
      "anonymous": false,
      "inputs": [
        {
          "indexed": true,
          "internalType": "uint256",
          "name": "tokenId",
          "type": "uint256"
        },
        {
          "indexed": false,
          "internalType": "int256",
          "name": "highValue",
          "type": "int256"
        }
      ],
      "name": "CreatedNFT",
      "type": "event"
    },
    {
      "anonymous": false,
      "inputs": [
        {
          "indexed": true,
          "internalType": "address",
          "name": "from",
          "type": "address"
        },
        {
          "indexed": true,
          "internalType": "address",
          "name": "to",
          "type": "address"
        },
        {
          "indexed": true,
          "internalType": "uint256",
          "name": "tokenId",
          "type": "uint256"
        }
      ],
      "name": "Transfer",
      "type": "event"
    },
    {
      "inputs": [
        {
          "internalType": "address",
          "name": "to",
          "type": "address"
        },
        {
          "internalType": "uint256",
          "name": "tokenId",
          "type": "uint256"
        }
      ],
      "name": "approve",
      "outputs": [],
      "stateMutability": "nonpayable",
      "type": "function"
    },
    {
      "inputs": [
        {
          "internalType": "address",
          "name": "owner",
          "type": "address"
        }
      ],
      "name": "balanceOf",
      "outputs": [
        {
          "internalType": "uint256",
          "name": "",
          "type": "uint256"
        }
      ],
      "stateMutability": "view",
      "type": "function"
    },
    {
      "inputs": [
        {
          "internalType": "uint256",
          "name": "tokenId",
          "type": "uint256"
        }
      ],
      "name": "getApproved",
      "outputs": [
        {
          "internalType": "address",
          "name": "",
          "type": "address"
        }
      ],
      "stateMutability": "view",
      "type": "function"
    },
    {
      "inputs": [
        {
          "internalType": "address",
          "name": "owner",
          "type": "address"
        },
        {
          "internalType": "address",
          "name": "operator",
          "type": "address"
        }
      ],
      "name": "isApprovedForAll",
      "outputs": [
        {
          "internalType": "bool",
          "name": "",
          "type": "bool"
        }
      ],
      "stateMutability": "view",
      "type": "function"
    },
    {
      "inputs": [
        {
          "internalType": "int256",
          "name": "highValue",
          "type": "int256"
        }
      ],
      "name": "mintNft",
      "outputs": [],
      "stateMutability": "nonpayable",
      "type": "function"
    },
    {
      "inputs": [],
      "name": "name",
      "outputs": [
        {
          "internalType": "string",
          "name": "",
          "type": "string"
        }
      ],
      "stateMutability": "view",
      "type": "function"
    },
    {
      "inputs": [
        {
          "internalType": "uint256",
          "name": "tokenId",
          "type": "uint256"
        }
      ],
      "name": "ownerOf",
      "outputs": [
        {
          "internalType": "address",
          "name": "",
          "type": "address"
        }
      ],
      "stateMutability": "view",
      "type": "function"
    },
    {
      "inputs": [
        {
          "internalType": "uint256",
          "name": "",
          "type": "uint256"
        }
      ],
      "name": "s_tokenIdToHighValue",
      "outputs": [
        {
          "internalType": "int256",
          "name": "",
          "type": "int256"
        }
      ],
      "stateMutability": "view",
      "type": "function"
    },
    {
      "inputs": [
        {
          "internalType": "address",
          "name": "from",
          "type": "address"
        },
        {
          "internalType": "address",
          "name": "to",
          "type": "address"
        },
        {
          "internalType": "uint256",
          "name": "tokenId",
          "type": "uint256"
        }
      ],
      "name": "safeTransferFrom",
      "outputs": [],
      "stateMutability": "nonpayable",
      "type": "function"
    },
    {
      "inputs": [
        {
          "internalType": "address",
          "name": "from",
          "type": "address"
        },
        {
          "internalType": "address",
          "name": "to",
          "type": "address"
        },
        {
          "internalType": "uint256",
          "name": "tokenId",
          "type": "uint256"
        },
        {
          "internalType": "bytes",
          "name": "data",
          "type": "bytes"
        }
      ],
      "name": "safeTransferFrom",
      "outputs": [],
      "stateMutability": "nonpayable",
      "type": "function"
    },
    {
      "inputs": [
        {
          "internalType": "address",
          "name": "operator",
          "type": "address"
        },
        {
          "internalType": "bool",
          "name": "approved",
          "type": "bool"
        }
      ],
      "name": "setApprovalForAll",
      "outputs": [],
      "stateMutability": "nonpayable",
      "type": "function"
    },
    {
      "inputs": [
        {
          "internalType": "bytes4",
          "name": "interfaceId",
          "type": "bytes4"
        }
      ],
      "name": "supportsInterface",
      "outputs": [
        {
          "internalType": "bool",
          "name": "",
          "type": "bool"
        }
      ],
      "stateMutability": "view",
      "type": "function"
    },
    {
      "inputs": [
        {
          "internalType": "string",
          "name": "svg",
          "type": "string"
        }
      ],
      "name": "svgToImageUri",
      "outputs": [
        {
          "internalType": "string",
          "name": "",
          "type": "string"
        }
      ],
      "stateMutability": "pure",
      "type": "function"
    },
    {
      "inputs": [],
      "name": "symbol",
      "outputs": [
        {
          "internalType": "string",
          "name": "",
          "type": "string"
        }
      ],
      "stateMutability": "view",
      "type": "function"
    },
    {
      "inputs": [
        {
          "internalType": "uint256",
          "name": "tokenId",
          "type": "uint256"
        }
      ],
      "name": "tokenURI",
      "outputs": [
        {
          "internalType": "string",
          "name": "",
          "type": "string"
        }
      ],
      "stateMutability": "view",
      "type": "function"
    },
    {
      "inputs": [
        {
          "internalType": "address",
          "name": "from",
          "type": "address"
        },
        {
          "internalType": "address",
          "name": "to",
          "type": "address"
        },
        {
          "internalType": "uint256",
          "name": "tokenId",
          "type": "uint256"
        }
      ],
      "name": "transferFrom",
      "outputs": [],
      "stateMutability": "nonpayable",
      "type": "function"
    }
  ],
  "transactionHash": "0xb953a0160623cfc4b035cf6372b10cb2bff8c808f115450ed6e79f2da300faa5",
  "args": [
    "0x694AA1769357215DE4FAC081bf1f309aDC325306",
    "<?xml version=\"1.0\" standalone=\"no\"?>\n<svg width=\"1024px\" height=\"1024px\" viewBox=\"0 0 1024 1024\" xmlns=\"http://www.w3.org/2000/svg\">\n  <path fill=\"#333\" d=\"M512 64C264.6 64 64 264.6 64 512s200.6 448 448 448 448-200.6 448-448S759.4 64 512 64zm0 820c-205.4 0-372-166.6-372-372s166.6-372 372-372 372 166.6 372 372-166.6 372-372 372z\"/>\n  <path fill=\"#E6E6E6\" d=\"M512 140c-205.4 0-372 166.6-372 372s166.6 372 372 372 372-166.6 372-372-166.6-372-372-372zM288 421a48.01 48.01 0 0 1 96 0 48.01 48.01 0 0 1-96 0zm376 272h-48.1c-4.2 0-7.8-3.2-8.1-7.4C604 636.1 562.5 597 512 597s-92.1 39.1-95.8 88.6c-.3 4.2-3.9 7.4-8.1 7.4H360a8 8 0 0 1-8-8.4c4.4-84.3 74.5-151.6 160-151.6s155.6 67.3 160 151.6a8 8 0 0 1-8 8.4zm24-224a48.01 48.01 0 0 1 0-96 48.01 48.01 0 0 1 0 96z\"/>\n  <path fill=\"#333\" d=\"M288 421a48 48 0 1 0 96 0 48 48 0 1 0-96 0zm224 112c-85.5 0-155.6 67.3-160 151.6a8 8 0 0 0 8 8.4h48.1c4.2 0 7.8-3.2 8.1-7.4 3.7-49.5 45.3-88.6 95.8-88.6s92 39.1 95.8 88.6c.3 4.2 3.9 7.4 8.1 7.4H664a8 8 0 0 0 8-8.4C667.6 600.3 597.5 533 512 533zm128-112a48 48 0 1 0 96 0 48 48 0 1 0-96 0z\"/>\n</svg>\n",
    "<svg viewBox=\"0 0 200 200\" width=\"400\"  height=\"400\" xmlns=\"http://www.w3.org/2000/svg\">\n  <circle cx=\"100\" cy=\"100\" fill=\"yellow\" r=\"78\" stroke=\"black\" stroke-width=\"3\"/>\n  <g class=\"eyes\">\n    <circle cx=\"61\" cy=\"82\" r=\"12\"/>\n    <circle cx=\"127\" cy=\"82\" r=\"12\"/>\n  </g>\n  <path d=\"m136.81 116.53c.69 26.17-64.11 42-81.52-.73\" style=\"fill:none; stroke: black; stroke-width: 3;\"/>\n</svg>"
  ],
  "numDeployments": 1,
  "solcInputHash": "219ccd9617f0b26f720a8100257da3d2",
  "bytecode": "0x60a06040523480156200001157600080fd5b50604051620037f9380380620037f983398181016040528101906200003791906200064f565b6040518060400160405280600f81526020017f44796e616d696320535647204e465400000000000000000000000000000000008152506040518060400160405280600381526020017f44534e00000000000000000000000000000000000000000000000000000000008152508160009080519060200190620000bb9291906200039d565b508060019080519060200190620000d49291906200039d565b5050506000600681905550620000f0826200017160201b60201c565b60079080519060200190620001079291906200039d565b5062000119816200017160201b60201c565b60089080519060200190620001309291906200039d565b508273ffffffffffffffffffffffffffffffffffffffff1660808173ffffffffffffffffffffffffffffffffffffffff1660601b815250505050506200093a565b60606000620001ac836040516020016200018c919062000736565b6040516020818303038152906040526200020f60201b62000d3e1760201c565b90506040518060400160405280601a81526020017f646174613a696d6167652f7376672b786d6c3b6261736536342c00000000000081525081604051602001620001f89291906200074f565b604051602081830303815290604052915050919050565b6060600082511415620002345760405180602001604052806000815250905062000398565b6000604051806060016040528060408152602001620037b96040913990506000600360028551620002669190620007b0565b6200027291906200083c565b600462000280919062000874565b90506000602082620002939190620007b0565b67ffffffffffffffff811115620002af57620002ae620004e1565b5b6040519080825280601f01601f191660200182016040528015620002e25781602001600182028036833780820191505090505b509050818152600183018586518101602084015b8183101562000353576003830192508251603f8160121c168501518253600182019150603f81600c1c168501518253600182019150603f8160061c168501518253600182019150603f8116850151825360018201915050620002f6565b60038951066001811462000370576002811462000381576200038c565b613d3d60f01b60028303526200038c565b603d60f81b60018303525b50505050508093505050505b919050565b828054620003ab9062000904565b90600052602060002090601f016020900481019282620003cf57600085556200041b565b82601f10620003ea57805160ff19168380011785556200041b565b828001600101855582156200041b579182015b828111156200041a578251825591602001919060010190620003fd565b5b5090506200042a91906200042e565b5090565b5b80821115620004495760008160009055506001016200042f565b5090565b6000604051905090565b600080fd5b600080fd5b600073ffffffffffffffffffffffffffffffffffffffff82169050919050565b60006200048e8262000461565b9050919050565b620004a08162000481565b8114620004ac57600080fd5b50565b600081519050620004c08162000495565b92915050565b600080fd5b600080fd5b6000601f19601f8301169050919050565b7f4e487b7100000000000000000000000000000000000000000000000000000000600052604160045260246000fd5b6200051b82620004d0565b810181811067ffffffffffffffff821117156200053d576200053c620004e1565b5b80604052505050565b6000620005526200044d565b905062000560828262000510565b919050565b600067ffffffffffffffff821115620005835762000582620004e1565b5b6200058e82620004d0565b9050602081019050919050565b60005b83811015620005bb5780820151818401526020810190506200059e565b83811115620005cb576000848401525b50505050565b6000620005e8620005e28462000565565b62000546565b905082815260208101848484011115620006075762000606620004cb565b5b620006148482856200059b565b509392505050565b600082601f830112620006345762000633620004c6565b5b815162000646848260208601620005d1565b91505092915050565b6000806000606084860312156200066b576200066a62000457565b5b60006200067b86828701620004af565b935050602084015167ffffffffffffffff8111156200069f576200069e6200045c565b5b620006ad868287016200061c565b925050604084015167ffffffffffffffff811115620006d157620006d06200045c565b5b620006df868287016200061c565b9150509250925092565b600081519050919050565b600081905092915050565b60006200070c82620006e9565b620007188185620006f4565b93506200072a8185602086016200059b565b80840191505092915050565b6000620007448284620006ff565b915081905092915050565b60006200075d8285620006ff565b91506200076b8284620006ff565b91508190509392505050565b6000819050919050565b7f4e487b7100000000000000000000000000000000000000000000000000000000600052601160045260246000fd5b6000620007bd8262000777565b9150620007ca8362000777565b9250827fffffffffffffffffffffffffffffffffffffffffffffffffffffffffffffffff0382111562000802576200080162000781565b5b828201905092915050565b7f4e487b7100000000000000000000000000000000000000000000000000000000600052601260045260246000fd5b6000620008498262000777565b9150620008568362000777565b9250826200086957620008686200080d565b5b828204905092915050565b6000620008818262000777565b91506200088e8362000777565b9250817fffffffffffffffffffffffffffffffffffffffffffffffffffffffffffffffff0483118215151615620008ca57620008c962000781565b5b828202905092915050565b7f4e487b7100000000000000000000000000000000000000000000000000000000600052602260045260246000fd5b600060028204905060018216806200091d57607f821691505b60208210811415620009345762000933620008d5565b5b50919050565b60805160601c612e60620009596000396000610a570152612e606000f3fe608060405234801561001057600080fd5b50600436106101005760003560e01c80636352211e11610097578063b88d4fde11610066578063b88d4fde146102bd578063c87b56dd146102d9578063e425aded14610309578063e985e9c51461033957610100565b80636352211e1461022357806370a082311461025357806395d89b4114610283578063a22cb465146102a157610100565b80631e930812116100d35780631e9308121461019f57806323b872dd146101bb5780633207d93c146101d757806342842e0e1461020757610100565b806301ffc9a71461010557806306fdde0314610135578063081812fc14610153578063095ea7b314610183575b600080fd5b61011f600480360381019061011a9190611b09565b610369565b60405161012c9190611b51565b60405180910390f35b61013d61044b565b60405161014a9190611c05565b60405180910390f35b61016d60048036038101906101689190611c5d565b6104dd565b60405161017a9190611ccb565b60405180910390f35b61019d60048036038101906101989190611d12565b610523565b005b6101b960048036038101906101b49190611d88565b61063b565b005b6101d560048036038101906101d09190611db5565b6106b3565b005b6101f160048036038101906101ec9190611f3d565b610713565b6040516101fe9190611c05565b60405180910390f35b610221600480360381019061021c9190611db5565b6107a0565b005b61023d60048036038101906102389190611c5d565b6107c0565b60405161024a9190611ccb565b60405180910390f35b61026d60048036038101906102689190611f86565b610847565b60405161027a9190611fc2565b60405180910390f35b61028b6108ff565b6040516102989190611c05565b60405180910390f35b6102bb60048036038101906102b69190612009565b610991565b005b6102d760048036038101906102d291906120ea565b6109a7565b005b6102f360048036038101906102ee9190611c5d565b610a09565b6040516103009190611c05565b60405180910390f35b610323600480360381019061031e9190611c5d565b610c92565b604051610330919061217c565b60405180910390f35b610353600480360381019061034e9190612197565b610caa565b6040516103609190611b51565b60405180910390f35b60007f80ac58cd000000000000000000000000000000000000000000000000000000007bffffffffffffffffffffffffffffffffffffffffffffffffffffffff1916827bffffffffffffffffffffffffffffffffffffffffffffffffffffffff1916148061043457507f5b5e139f000000000000000000000000000000000000000000000000000000007bffffffffffffffffffffffffffffffffffffffffffffffffffffffff1916827bffffffffffffffffffffffffffffffffffffffffffffffffffffffff1916145b80610444575061044382610eb7565b5b9050919050565b60606000805461045a90612206565b80601f016020809104026020016040519081016040528092919081815260200182805461048690612206565b80156104d35780601f106104a8576101008083540402835291602001916104d3565b820191906000526020600020905b8154815290600101906020018083116104b657829003601f168201915b5050505050905090565b60006104e882610f21565b6004600083815260200190815260200160002060009054906101000a900473ffffffffffffffffffffffffffffffffffffffff169050919050565b600061052e826107c0565b90508073ffffffffffffffffffffffffffffffffffffffff168373ffffffffffffffffffffffffffffffffffffffff16141561059f576040517f08c379a0000000000000000000000000000000000000000000000000000000008152600401610596906122aa565b60405180910390fd5b8073ffffffffffffffffffffffffffffffffffffffff166105be610f6c565b73ffffffffffffffffffffffffffffffffffffffff1614806105ed57506105ec816105e7610f6c565b610caa565b5b61062c576040517f08c379a00000000000000000000000000000000000000000000000000000000081526004016106239061233c565b60405180910390fd5b6106368383610f74565b505050565b80600960006006548152602001908152602001600020819055506106613360065461102d565b6001600654610670919061238b565b6006819055506006547f882d3b5a729a8bb95cf6c0083c99b42ecd9637123d4425bd7b768877fd8af8b0826040516106a8919061217c565b60405180910390a250565b6106c46106be610f6c565b8261104b565b610703576040517f08c379a00000000000000000000000000000000000000000000000000000000081526004016106fa90612453565b60405180910390fd5b61070e8383836110e0565b505050565b6060600061073f8360405160200161072b91906124af565b604051602081830303815290604052610d3e565b90506040518060400160405280601a81526020017f646174613a696d6167652f7376672b786d6c3b6261736536342c000000000000815250816040516020016107899291906124c6565b604051602081830303815290604052915050919050565b6107bb838383604051806020016040528060008152506109a7565b505050565b6000806107cc836113da565b9050600073ffffffffffffffffffffffffffffffffffffffff168173ffffffffffffffffffffffffffffffffffffffff16141561083e576040517f08c379a000000000000000000000000000000000000000000000000000000000815260040161083590612536565b60405180910390fd5b80915050919050565b60008073ffffffffffffffffffffffffffffffffffffffff168273ffffffffffffffffffffffffffffffffffffffff1614156108b8576040517f08c379a00000000000000000000000000000000000000000000000000000000081526004016108af906125c8565b60405180910390fd5b600360008373ffffffffffffffffffffffffffffffffffffffff1673ffffffffffffffffffffffffffffffffffffffff168152602001908152602001600020549050919050565b60606001805461090e90612206565b80601f016020809104026020016040519081016040528092919081815260200182805461093a90612206565b80156109875780601f1061095c57610100808354040283529160200191610987565b820191906000526020600020905b81548152906001019060200180831161096a57829003601f168201915b5050505050905090565b6109a361099c610f6c565b8383611417565b5050565b6109b86109b2610f6c565b8361104b565b6109f7576040517f08c379a00000000000000000000000000000000000000000000000000000000081526004016109ee90612453565b60405180910390fd5b610a0384848484611584565b50505050565b6060610a14826115e0565b610a53576040517f08c379a0000000000000000000000000000000000000000000000000000000008152600401610a4a90612634565b60405180910390fd5b60007f000000000000000000000000000000000000000000000000000000000000000073ffffffffffffffffffffffffffffffffffffffff1663feaf968c6040518163ffffffff1660e01b815260040160a06040518083038186803b158015610abb57600080fd5b505afa158015610acf573d6000803e3d6000fd5b505050506040513d601f19601f82011682018060405250810190610af391906126c0565b505050915050600060078054610b0890612206565b80601f0160208091040260200160405190810160405280929190818152602001828054610b3490612206565b8015610b815780601f10610b5657610100808354040283529160200191610b81565b820191906000526020600020905b815481529060010190602001808311610b6457829003601f168201915b5050505050905060096000858152602001908152602001600020548212610c305760088054610baf90612206565b80601f0160208091040260200160405190810160405280929190818152602001828054610bdb90612206565b8015610c285780601f10610bfd57610100808354040283529160200191610c28565b820191906000526020600020905b815481529060010190602001808311610c0b57829003601f168201915b505050505090505b610c38611621565b610c69610c4361044b565b83604051602001610c55929190612903565b604051602081830303815290604052610d3e565b604051602001610c7a9291906124c6565b60405160208183030381529060405292505050919050565b60096020528060005260406000206000915090505481565b6000600560008473ffffffffffffffffffffffffffffffffffffffff1673ffffffffffffffffffffffffffffffffffffffff16815260200190815260200160002060008373ffffffffffffffffffffffffffffffffffffffff1673ffffffffffffffffffffffffffffffffffffffff16815260200190815260200160002060009054906101000a900460ff16905092915050565b6060600082511415610d6157604051806020016040528060008152509050610eb2565b6000604051806060016040528060408152602001612deb6040913990506000600360028551610d90919061238b565b610d9a9190612982565b6004610da691906129b3565b90506000602082610db7919061238b565b67ffffffffffffffff811115610dd057610dcf611e12565b5b6040519080825280601f01601f191660200182016040528015610e025781602001600182028036833780820191505090505b509050818152600183018586518101602084015b81831015610e71576003830192508251603f8160121c168501518253600182019150603f81600c1c168501518253600182019150603f8160061c168501518253600182019150603f8116850151825360018201915050610e16565b600389510660018114610e8b5760028114610e9b57610ea6565b613d3d60f01b6002830352610ea6565b603d60f81b60018303525b50505050508093505050505b919050565b60007f01ffc9a7000000000000000000000000000000000000000000000000000000007bffffffffffffffffffffffffffffffffffffffffffffffffffffffff1916827bffffffffffffffffffffffffffffffffffffffffffffffffffffffff1916149050919050565b610f2a816115e0565b610f69576040517f08c379a0000000000000000000000000000000000000000000000000000000008152600401610f6090612536565b60405180910390fd5b50565b600033905090565b816004600083815260200190815260200160002060006101000a81548173ffffffffffffffffffffffffffffffffffffffff021916908373ffffffffffffffffffffffffffffffffffffffff160217905550808273ffffffffffffffffffffffffffffffffffffffff16610fe7836107c0565b73ffffffffffffffffffffffffffffffffffffffff167f8c5be1e5ebec7d5bd14f71427d1e84f3dd0314c0f7b2291e5b200ac8c7c3b92560405160405180910390a45050565b61104782826040518060200160405280600081525061165e565b5050565b600080611057836107c0565b90508073ffffffffffffffffffffffffffffffffffffffff168473ffffffffffffffffffffffffffffffffffffffff16148061109957506110988185610caa565b5b806110d757508373ffffffffffffffffffffffffffffffffffffffff166110bf846104dd565b73ffffffffffffffffffffffffffffffffffffffff16145b91505092915050565b8273ffffffffffffffffffffffffffffffffffffffff16611100826107c0565b73ffffffffffffffffffffffffffffffffffffffff1614611156576040517f08c379a000000000000000000000000000000000000000000000000000000000815260040161114d90612a7f565b60405180910390fd5b600073ffffffffffffffffffffffffffffffffffffffff168273ffffffffffffffffffffffffffffffffffffffff1614156111c6576040517f08c379a00000000000000000000000000000000000000000000000000000000081526004016111bd90612b11565b60405180910390fd5b6111d383838360016116b9565b8273ffffffffffffffffffffffffffffffffffffffff166111f3826107c0565b73ffffffffffffffffffffffffffffffffffffffff1614611249576040517f08c379a000000000000000000000000000000000000000000000000000000000815260040161124090612a7f565b60405180910390fd5b6004600082815260200190815260200160002060006101000a81549073ffffffffffffffffffffffffffffffffffffffff02191690556001600360008573ffffffffffffffffffffffffffffffffffffffff1673ffffffffffffffffffffffffffffffffffffffff168152602001908152602001600020600082825403925050819055506001600360008473ffffffffffffffffffffffffffffffffffffffff1673ffffffffffffffffffffffffffffffffffffffff16815260200190815260200160002060008282540192505081905550816002600083815260200190815260200160002060006101000a81548173ffffffffffffffffffffffffffffffffffffffff021916908373ffffffffffffffffffffffffffffffffffffffff160217905550808273ffffffffffffffffffffffffffffffffffffffff168473ffffffffffffffffffffffffffffffffffffffff167fddf252ad1be2c89b69c2b068fc378daa952ba7f163c4a11628f55a4df523b3ef60405160405180910390a46113d583838360016116bf565b505050565b60006002600083815260200190815260200160002060009054906101000a900473ffffffffffffffffffffffffffffffffffffffff169050919050565b8173ffffffffffffffffffffffffffffffffffffffff168373ffffffffffffffffffffffffffffffffffffffff161415611486576040517f08c379a000000000000000000000000000000000000000000000000000000000815260040161147d90612b7d565b60405180910390fd5b80600560008573ffffffffffffffffffffffffffffffffffffffff1673ffffffffffffffffffffffffffffffffffffffff16815260200190815260200160002060008473ffffffffffffffffffffffffffffffffffffffff1673ffffffffffffffffffffffffffffffffffffffff16815260200190815260200160002060006101000a81548160ff0219169083151502179055508173ffffffffffffffffffffffffffffffffffffffff168373ffffffffffffffffffffffffffffffffffffffff167f17307eab39ab6107e8899845ad3d59bd9653f200f220920489ca2b5937696c31836040516115779190611b51565b60405180910390a3505050565b61158f8484846110e0565b61159b848484846116c5565b6115da576040517f08c379a00000000000000000000000000000000000000000000000000000000081526004016115d190612c0f565b60405180910390fd5b50505050565b60008073ffffffffffffffffffffffffffffffffffffffff16611602836113da565b73ffffffffffffffffffffffffffffffffffffffff1614159050919050565b60606040518060400160405280601d81526020017f646174613a6170706c69636174696f6e2f6a736f6e3b6261736536342c000000815250905090565b611668838361185c565b61167560008484846116c5565b6116b4576040517f08c379a00000000000000000000000000000000000000000000000000000000081526004016116ab90612c0f565b60405180910390fd5b505050565b50505050565b50505050565b60006116e68473ffffffffffffffffffffffffffffffffffffffff16611a7a565b1561184f578373ffffffffffffffffffffffffffffffffffffffff1663150b7a0261170f610f6c565b8786866040518563ffffffff1660e01b81526004016117319493929190612c84565b602060405180830381600087803b15801561174b57600080fd5b505af192505050801561177c57506040513d601f19601f820116820180604052508101906117799190612ce5565b60015b6117ff573d80600081146117ac576040519150601f19603f3d011682016040523d82523d6000602084013e6117b1565b606091505b506000815114156117f7576040517f08c379a00000000000000000000000000000000000000000000000000000000081526004016117ee90612c0f565b60405180910390fd5b805181602001fd5b63150b7a0260e01b7bffffffffffffffffffffffffffffffffffffffffffffffffffffffff1916817bffffffffffffffffffffffffffffffffffffffffffffffffffffffff191614915050611854565b600190505b949350505050565b600073ffffffffffffffffffffffffffffffffffffffff168273ffffffffffffffffffffffffffffffffffffffff1614156118cc576040517f08c379a00000000000000000000000000000000000000000000000000000000081526004016118c390612d5e565b60405180910390fd5b6118d5816115e0565b15611915576040517f08c379a000000000000000000000000000000000000000000000000000000000815260040161190c90612dca565b60405180910390fd5b6119236000838360016116b9565b61192c816115e0565b1561196c576040517f08c379a000000000000000000000000000000000000000000000000000000000815260040161196390612dca565b60405180910390fd5b6001600360008473ffffffffffffffffffffffffffffffffffffffff1673ffffffffffffffffffffffffffffffffffffffff16815260200190815260200160002060008282540192505081905550816002600083815260200190815260200160002060006101000a81548173ffffffffffffffffffffffffffffffffffffffff021916908373ffffffffffffffffffffffffffffffffffffffff160217905550808273ffffffffffffffffffffffffffffffffffffffff16600073ffffffffffffffffffffffffffffffffffffffff167fddf252ad1be2c89b69c2b068fc378daa952ba7f163c4a11628f55a4df523b3ef60405160405180910390a4611a766000838360016116bf565b5050565b6000808273ffffffffffffffffffffffffffffffffffffffff163b119050919050565b6000604051905090565b600080fd5b600080fd5b60007fffffffff0000000000000000000000000000000000000000000000000000000082169050919050565b611ae681611ab1565b8114611af157600080fd5b50565b600081359050611b0381611add565b92915050565b600060208284031215611b1f57611b1e611aa7565b5b6000611b2d84828501611af4565b91505092915050565b60008115159050919050565b611b4b81611b36565b82525050565b6000602082019050611b666000830184611b42565b92915050565b600081519050919050565b600082825260208201905092915050565b60005b83811015611ba6578082015181840152602081019050611b8b565b83811115611bb5576000848401525b50505050565b6000601f19601f8301169050919050565b6000611bd782611b6c565b611be18185611b77565b9350611bf1818560208601611b88565b611bfa81611bbb565b840191505092915050565b60006020820190508181036000830152611c1f8184611bcc565b905092915050565b6000819050919050565b611c3a81611c27565b8114611c4557600080fd5b50565b600081359050611c5781611c31565b92915050565b600060208284031215611c7357611c72611aa7565b5b6000611c8184828501611c48565b91505092915050565b600073ffffffffffffffffffffffffffffffffffffffff82169050919050565b6000611cb582611c8a565b9050919050565b611cc581611caa565b82525050565b6000602082019050611ce06000830184611cbc565b92915050565b611cef81611caa565b8114611cfa57600080fd5b50565b600081359050611d0c81611ce6565b92915050565b60008060408385031215611d2957611d28611aa7565b5b6000611d3785828601611cfd565b9250506020611d4885828601611c48565b9150509250929050565b6000819050919050565b611d6581611d52565b8114611d7057600080fd5b50565b600081359050611d8281611d5c565b92915050565b600060208284031215611d9e57611d9d611aa7565b5b6000611dac84828501611d73565b91505092915050565b600080600060608486031215611dce57611dcd611aa7565b5b6000611ddc86828701611cfd565b9350506020611ded86828701611cfd565b9250506040611dfe86828701611c48565b9150509250925092565b600080fd5b600080fd5b7f4e487b7100000000000000000000000000000000000000000000000000000000600052604160045260246000fd5b611e4a82611bbb565b810181811067ffffffffffffffff82111715611e6957611e68611e12565b5b80604052505050565b6000611e7c611a9d565b9050611e888282611e41565b919050565b600067ffffffffffffffff821115611ea857611ea7611e12565b5b611eb182611bbb565b9050602081019050919050565b82818337600083830152505050565b6000611ee0611edb84611e8d565b611e72565b905082815260208101848484011115611efc57611efb611e0d565b5b611f07848285611ebe565b509392505050565b600082601f830112611f2457611f23611e08565b5b8135611f34848260208601611ecd565b91505092915050565b600060208284031215611f5357611f52611aa7565b5b600082013567ffffffffffffffff811115611f7157611f70611aac565b5b611f7d84828501611f0f565b91505092915050565b600060208284031215611f9c57611f9b611aa7565b5b6000611faa84828501611cfd565b91505092915050565b611fbc81611c27565b82525050565b6000602082019050611fd76000830184611fb3565b92915050565b611fe681611b36565b8114611ff157600080fd5b50565b60008135905061200381611fdd565b92915050565b600080604083850312156120205761201f611aa7565b5b600061202e85828601611cfd565b925050602061203f85828601611ff4565b9150509250929050565b600067ffffffffffffffff82111561206457612063611e12565b5b61206d82611bbb565b9050602081019050919050565b600061208d61208884612049565b611e72565b9050828152602081018484840111156120a9576120a8611e0d565b5b6120b4848285611ebe565b509392505050565b600082601f8301126120d1576120d0611e08565b5b81356120e184826020860161207a565b91505092915050565b6000806000806080858703121561210457612103611aa7565b5b600061211287828801611cfd565b945050602061212387828801611cfd565b935050604061213487828801611c48565b925050606085013567ffffffffffffffff81111561215557612154611aac565b5b612161878288016120bc565b91505092959194509250565b61217681611d52565b82525050565b6000602082019050612191600083018461216d565b92915050565b600080604083850312156121ae576121ad611aa7565b5b60006121bc85828601611cfd565b92505060206121cd85828601611cfd565b9150509250929050565b7f4e487b7100000000000000000000000000000000000000000000000000000000600052602260045260246000fd5b6000600282049050600182168061221e57607f821691505b60208210811415612232576122316121d7565b5b50919050565b7f4552433732313a20617070726f76616c20746f2063757272656e74206f776e6560008201527f7200000000000000000000000000000000000000000000000000000000000000602082015250565b6000612294602183611b77565b915061229f82612238565b604082019050919050565b600060208201905081810360008301526122c381612287565b9050919050565b7f4552433732313a20617070726f76652063616c6c6572206973206e6f7420746f60008201527f6b656e206f776e6572206f7220617070726f76656420666f7220616c6c000000602082015250565b6000612326603d83611b77565b9150612331826122ca565b604082019050919050565b6000602082019050818103600083015261235581612319565b9050919050565b7f4e487b7100000000000000000000000000000000000000000000000000000000600052601160045260246000fd5b600061239682611c27565b91506123a183611c27565b9250827fffffffffffffffffffffffffffffffffffffffffffffffffffffffffffffffff038211156123d6576123d561235c565b5b828201905092915050565b7f4552433732313a2063616c6c6572206973206e6f7420746f6b656e206f776e6560008201527f72206f7220617070726f76656400000000000000000000000000000000000000602082015250565b600061243d602d83611b77565b9150612448826123e1565b604082019050919050565b6000602082019050818103600083015261246c81612430565b9050919050565b600081905092915050565b600061248982611b6c565b6124938185612473565b93506124a3818560208601611b88565b80840191505092915050565b60006124bb828461247e565b915081905092915050565b60006124d2828561247e565b91506124de828461247e565b91508190509392505050565b7f4552433732313a20696e76616c696420746f6b656e2049440000000000000000600082015250565b6000612520601883611b77565b915061252b826124ea565b602082019050919050565b6000602082019050818103600083015261254f81612513565b9050919050565b7f4552433732313a2061646472657373207a65726f206973206e6f74206120766160008201527f6c6964206f776e65720000000000000000000000000000000000000000000000602082015250565b60006125b2602983611b77565b91506125bd82612556565b604082019050919050565b600060208201905081810360008301526125e1816125a5565b9050919050565b7f55524920517565727920666f72206e6f6e6578697374656e7420746f6b656e00600082015250565b600061261e601f83611b77565b9150612629826125e8565b602082019050919050565b6000602082019050818103600083015261264d81612611565b9050919050565b600069ffffffffffffffffffff82169050919050565b61267381612654565b811461267e57600080fd5b50565b6000815190506126908161266a565b92915050565b6000815190506126a581611d5c565b92915050565b6000815190506126ba81611c31565b92915050565b600080600080600060a086880312156126dc576126db611aa7565b5b60006126ea88828901612681565b95505060206126fb88828901612696565b945050604061270c888289016126ab565b935050606061271d888289016126ab565b925050608061272e88828901612681565b9150509295509295909350565b7f7b226e616d65223a220000000000000000000000000000000000000000000000600082015250565b6000612771600983612473565b915061277c8261273b565b600982019050919050565b7f222c226465736372697074696f6e223a22416e204e465420746861742063686160008201527f6e676573206261736564206f6e2074686520436861696e6c696e6b204665656460208201527f222c000000000000000000000000000000000000000000000000000000000000604082015250565b6000612809604283612473565b915061281482612787565b604282019050919050565b7f2261747472696275746573223a205b7b2274726169745f74797065223a20226360008201527f6f6f6c6e657373222c2276616c7565223a203130307d5d2c2022696d6167652260208201527f3a22000000000000000000000000000000000000000000000000000000000000604082015250565b60006128a1604283612473565b91506128ac8261281f565b604282019050919050565b7f227d000000000000000000000000000000000000000000000000000000000000600082015250565b60006128ed600283612473565b91506128f8826128b7565b600282019050919050565b600061290e82612764565b915061291a828561247e565b9150612925826127fc565b915061293082612894565b915061293c828461247e565b9150612947826128e0565b91508190509392505050565b7f4e487b7100000000000000000000000000000000000000000000000000000000600052601260045260246000fd5b600061298d82611c27565b915061299883611c27565b9250826129a8576129a7612953565b5b828204905092915050565b60006129be82611c27565b91506129c983611c27565b9250817fffffffffffffffffffffffffffffffffffffffffffffffffffffffffffffffff0483118215151615612a0257612a0161235c565b5b828202905092915050565b7f4552433732313a207472616e736665722066726f6d20696e636f72726563742060008201527f6f776e6572000000000000000000000000000000000000000000000000000000602082015250565b6000612a69602583611b77565b9150612a7482612a0d565b604082019050919050565b60006020820190508181036000830152612a9881612a5c565b9050919050565b7f4552433732313a207472616e7366657220746f20746865207a65726f2061646460008201527f7265737300000000000000000000000000000000000000000000000000000000602082015250565b6000612afb602483611b77565b9150612b0682612a9f565b604082019050919050565b60006020820190508181036000830152612b2a81612aee565b9050919050565b7f4552433732313a20617070726f766520746f2063616c6c657200000000000000600082015250565b6000612b67601983611b77565b9150612b7282612b31565b602082019050919050565b60006020820190508181036000830152612b9681612b5a565b9050919050565b7f4552433732313a207472616e7366657220746f206e6f6e20455243373231526560008201527f63656976657220696d706c656d656e7465720000000000000000000000000000602082015250565b6000612bf9603283611b77565b9150612c0482612b9d565b604082019050919050565b60006020820190508181036000830152612c2881612bec565b9050919050565b600081519050919050565b600082825260208201905092915050565b6000612c5682612c2f565b612c608185612c3a565b9350612c70818560208601611b88565b612c7981611bbb565b840191505092915050565b6000608082019050612c996000830187611cbc565b612ca66020830186611cbc565b612cb36040830185611fb3565b8181036060830152612cc58184612c4b565b905095945050505050565b600081519050612cdf81611add565b92915050565b600060208284031215612cfb57612cfa611aa7565b5b6000612d0984828501612cd0565b91505092915050565b7f4552433732313a206d696e7420746f20746865207a65726f2061646472657373600082015250565b6000612d48602083611b77565b9150612d5382612d12565b602082019050919050565b60006020820190508181036000830152612d7781612d3b565b9050919050565b7f4552433732313a20746f6b656e20616c7265616479206d696e74656400000000600082015250565b6000612db4601c83611b77565b9150612dbf82612d7e565b602082019050919050565b60006020820190508181036000830152612de381612da7565b905091905056fe4142434445464748494a4b4c4d4e4f505152535455565758595a6162636465666768696a6b6c6d6e6f707172737475767778797a303132333435363738392b2fa2646970667358221220669dd4e5ee13566914048eb96dff7a919c6d03239ba203c030d1418a1b02511864736f6c634300080800334142434445464748494a4b4c4d4e4f505152535455565758595a6162636465666768696a6b6c6d6e6f707172737475767778797a303132333435363738392b2f",
  "devdoc": {
    "kind": "dev",
    "methods": {
      "approve(address,uint256)": {
        "details": "See {IERC721-approve}."
      },
      "balanceOf(address)": {
        "details": "See {IERC721-balanceOf}."
      },
      "getApproved(uint256)": {
        "details": "See {IERC721-getApproved}."
      },
      "isApprovedForAll(address,address)": {
        "details": "See {IERC721-isApprovedForAll}."
      },
      "name()": {
        "details": "See {IERC721Metadata-name}."
      },
      "ownerOf(uint256)": {
        "details": "See {IERC721-ownerOf}."
      },
      "safeTransferFrom(address,address,uint256)": {
        "details": "See {IERC721-safeTransferFrom}."
      },
      "safeTransferFrom(address,address,uint256,bytes)": {
        "details": "See {IERC721-safeTransferFrom}."
      },
      "setApprovalForAll(address,bool)": {
        "details": "See {IERC721-setApprovalForAll}."
      },
      "supportsInterface(bytes4)": {
        "details": "See {IERC165-supportsInterface}."
      },
      "symbol()": {
        "details": "See {IERC721Metadata-symbol}."
      },
      "tokenURI(uint256)": {
        "details": "See {IERC721Metadata-tokenURI}."
      },
      "transferFrom(address,address,uint256)": {
        "details": "See {IERC721-transferFrom}."
      }
    },
    "version": 1
  },
  "userdoc": {
    "kind": "user",
    "methods": {},
    "version": 1
  },
  "storageLayout": {
    "storage": [
      {
        "astId": 71,
        "contract": "contracts/DynamicSvgNft.sol:DynamicSvgNFT",
        "label": "_name",
        "offset": 0,
        "slot": "0",
        "type": "t_string_storage"
      },
      {
        "astId": 73,
        "contract": "contracts/DynamicSvgNft.sol:DynamicSvgNFT",
        "label": "_symbol",
        "offset": 0,
        "slot": "1",
        "type": "t_string_storage"
      },
      {
        "astId": 77,
        "contract": "contracts/DynamicSvgNft.sol:DynamicSvgNFT",
        "label": "_owners",
        "offset": 0,
        "slot": "2",
        "type": "t_mapping(t_uint256,t_address)"
      },
      {
        "astId": 81,
        "contract": "contracts/DynamicSvgNft.sol:DynamicSvgNFT",
        "label": "_balances",
        "offset": 0,
        "slot": "3",
        "type": "t_mapping(t_address,t_uint256)"
      },
      {
        "astId": 85,
        "contract": "contracts/DynamicSvgNft.sol:DynamicSvgNFT",
        "label": "_tokenApprovals",
        "offset": 0,
        "slot": "4",
        "type": "t_mapping(t_uint256,t_address)"
      },
      {
        "astId": 91,
        "contract": "contracts/DynamicSvgNft.sol:DynamicSvgNFT",
        "label": "_operatorApprovals",
        "offset": 0,
        "slot": "5",
        "type": "t_mapping(t_address,t_mapping(t_address,t_bool))"
      },
      {
        "astId": 2685,
        "contract": "contracts/DynamicSvgNft.sol:DynamicSvgNFT",
        "label": "s_tokenCounter",
        "offset": 0,
        "slot": "6",
        "type": "t_uint256"
      },
      {
        "astId": 2687,
        "contract": "contracts/DynamicSvgNft.sol:DynamicSvgNFT",
        "label": "i_lowImageUri",
        "offset": 0,
        "slot": "7",
        "type": "t_string_storage"
      },
      {
        "astId": 2689,
        "contract": "contracts/DynamicSvgNft.sol:DynamicSvgNFT",
        "label": "i_highImageUri",
        "offset": 0,
        "slot": "8",
        "type": "t_string_storage"
      },
      {
        "astId": 2699,
        "contract": "contracts/DynamicSvgNft.sol:DynamicSvgNFT",
        "label": "s_tokenIdToHighValue",
        "offset": 0,
        "slot": "9",
        "type": "t_mapping(t_uint256,t_int256)"
      }
    ],
    "types": {
      "t_address": {
        "encoding": "inplace",
        "label": "address",
        "numberOfBytes": "20"
      },
      "t_bool": {
        "encoding": "inplace",
        "label": "bool",
        "numberOfBytes": "1"
      },
      "t_int256": {
        "encoding": "inplace",
        "label": "int256",
        "numberOfBytes": "32"
      },
      "t_mapping(t_address,t_bool)": {
        "encoding": "mapping",
        "key": "t_address",
        "label": "mapping(address => bool)",
        "numberOfBytes": "32",
        "value": "t_bool"
      },
      "t_mapping(t_address,t_mapping(t_address,t_bool))": {
        "encoding": "mapping",
        "key": "t_address",
        "label": "mapping(address => mapping(address => bool))",
        "numberOfBytes": "32",
        "value": "t_mapping(t_address,t_bool)"
      },
      "t_mapping(t_address,t_uint256)": {
        "encoding": "mapping",
        "key": "t_address",
        "label": "mapping(address => uint256)",
        "numberOfBytes": "32",
        "value": "t_uint256"
      },
      "t_mapping(t_uint256,t_address)": {
        "encoding": "mapping",
        "key": "t_uint256",
        "label": "mapping(uint256 => address)",
        "numberOfBytes": "32",
        "value": "t_address"
      },
      "t_mapping(t_uint256,t_int256)": {
        "encoding": "mapping",
        "key": "t_uint256",
        "label": "mapping(uint256 => int256)",
        "numberOfBytes": "32",
        "value": "t_int256"
      },
      "t_string_storage": {
        "encoding": "bytes",
        "label": "string",
        "numberOfBytes": "32"
      },
      "t_uint256": {
        "encoding": "inplace",
        "label": "uint256",
        "numberOfBytes": "32"
      }
    }
  }
}